S01B0000536572766F5F506F74695F32303138303231342E737265630E
S113000009C016C015C014C013C012C011C010C05E
S11300100FC00EC011241FBECFE9CDBF20E0A0E663
S1130020B0E001C01D92A136B207E1F724D03BC075
S1130030E7CF389A3D9A86B1836886B90895369A8F
S11300403699FECF85B10895282F8091600090E005
S113005063E070E017D0820F911D95958795959573
S1130060879580936000089583B7856083BF8FB5BB
S1130070836B8FBD0895B99ADCDFF6DFE0DFE4DF40
S113008089BDFCCF0024552704C0080E591F880FD2
S1130090991F009729F076956795B8F37105B9F71C
S10D00A0802D952F0895F894FFCFEA
S9030000FC
